{
  "address": "0x5FbDB2315678afecb367f032d93F642f64180aa3",
  "abi": [
    {
      "inputs": [
        {
          "internalType": "uint256",
          "name": "_initialSupply",
          "type": "uint256"
        }
      ],
      "stateMutability": "nonpayable",
      "type": "constructor"
    },
    {
      "anonymous": false,
      "inputs": [
        {
          "indexed": true,
          "internalType": "address",
          "name": "owner",
          "type": "address"
        },
        {
          "indexed": true,
          "internalType": "address",
          "name": "spender",
          "type": "address"
        },
        {
          "indexed": false,
          "internalType": "uint256",
          "name": "value",
          "type": "uint256"
        }
      ],
      "name": "Approval",
      "type": "event"
    },
    {
      "anonymous": false,
      "inputs": [
        {
          "indexed": false,
          "internalType": "address",
          "name": "_address",
          "type": "address"
        },
        {
          "indexed": false,
          "internalType": "uint256",
          "name": "_amount",
          "type": "uint256"
        }
      ],
      "name": "BurnedFrom",
      "type": "event"
    },
    {
      "anonymous": false,
      "inputs": [
        {
          "indexed": false,
          "internalType": "address",
          "name": "_address",
          "type": "address"
        },
        {
          "indexed": false,
          "internalType": "uint256",
          "name": "_amount",
          "type": "uint256"
        }
      ],
      "name": "MintedTo",
      "type": "event"
    },
    {
      "anonymous": false,
      "inputs": [
        {
          "indexed": false,
          "internalType": "address",
          "name": "_address",
          "type": "address"
        },
        {
          "indexed": false,
          "internalType": "uint256",
          "name": "_amount",
          "type": "uint256"
        }
      ],
      "name": "SignedUpNewWallet",
      "type": "event"
    },
    {
      "anonymous": false,
      "inputs": [
        {
          "indexed": true,
          "internalType": "address",
          "name": "from",
          "type": "address"
        },
        {
          "indexed": true,
          "internalType": "address",
          "name": "to",
          "type": "address"
        },
        {
          "indexed": false,
          "internalType": "uint256",
          "name": "value",
          "type": "uint256"
        }
      ],
      "name": "Transfer",
      "type": "event"
    },
    {
      "inputs": [
        {
          "internalType": "address",
          "name": "owner",
          "type": "address"
        },
        {
          "internalType": "address",
          "name": "spender",
          "type": "address"
        }
      ],
      "name": "allowance",
      "outputs": [
        {
          "internalType": "uint256",
          "name": "",
          "type": "uint256"
        }
      ],
      "stateMutability": "view",
      "type": "function"
    },
    {
      "inputs": [
        {
          "internalType": "address",
          "name": "spender",
          "type": "address"
        },
        {
          "internalType": "uint256",
          "name": "amount",
          "type": "uint256"
        }
      ],
      "name": "approve",
      "outputs": [
        {
          "internalType": "bool",
          "name": "",
          "type": "bool"
        }
      ],
      "stateMutability": "nonpayable",
      "type": "function"
    },
    {
      "inputs": [
        {
          "internalType": "address",
          "name": "account",
          "type": "address"
        }
      ],
      "name": "balanceOf",
      "outputs": [
        {
          "internalType": "uint256",
          "name": "",
          "type": "uint256"
        }
      ],
      "stateMutability": "view",
      "type": "function"
    },
    {
      "inputs": [],
      "name": "decimals",
      "outputs": [
        {
          "internalType": "uint8",
          "name": "",
          "type": "uint8"
        }
      ],
      "stateMutability": "view",
      "type": "function"
    },
    {
      "inputs": [
        {
          "internalType": "address",
          "name": "spender",
          "type": "address"
        },
        {
          "internalType": "uint256",
          "name": "subtractedValue",
          "type": "uint256"
        }
      ],
      "name": "decreaseAllowance",
      "outputs": [
        {
          "internalType": "bool",
          "name": "",
          "type": "bool"
        }
      ],
      "stateMutability": "nonpayable",
      "type": "function"
    },
    {
      "inputs": [
        {
          "internalType": "address",
          "name": "_from",
          "type": "address"
        },
        {
          "internalType": "uint256",
          "name": "_amount",
          "type": "uint256"
        }
      ],
      "name": "deduct",
      "outputs": [],
      "stateMutability": "nonpayable",
      "type": "function"
    },
    {
      "inputs": [
        {
          "internalType": "address",
          "name": "_address",
          "type": "address"
        }
      ],
      "name": "doesWalletExist",
      "outputs": [
        {
          "internalType": "bool",
          "name": "",
          "type": "bool"
        }
      ],
      "stateMutability": "view",
      "type": "function"
    },
    {
      "inputs": [],
      "name": "getOwner",
      "outputs": [
        {
          "internalType": "address",
          "name": "",
          "type": "address"
        }
      ],
      "stateMutability": "view",
      "type": "function"
    },
    {
      "inputs": [
        {
          "internalType": "address",
          "name": "spender",
          "type": "address"
        },
        {
          "internalType": "uint256",
          "name": "addedValue",
          "type": "uint256"
        }
      ],
      "name": "increaseAllowance",
      "outputs": [
        {
          "internalType": "bool",
          "name": "",
          "type": "bool"
        }
      ],
      "stateMutability": "nonpayable",
      "type": "function"
    },
    {
      "inputs": [
        {
          "internalType": "address",
          "name": "_to",
          "type": "address"
        },
        {
          "internalType": "uint256",
          "name": "_amount",
          "type": "uint256"
        }
      ],
      "name": "mint",
      "outputs": [],
      "stateMutability": "nonpayable",
      "type": "function"
    },
    {
      "inputs": [],
      "name": "name",
      "outputs": [
        {
          "internalType": "string",
          "name": "",
          "type": "string"
        }
      ],
      "stateMutability": "view",
      "type": "function"
    },
    {
      "inputs": [
        {
          "internalType": "address",
          "name": "_address",
          "type": "address"
        },
        {
          "internalType": "uint256",
          "name": "_amount",
          "type": "uint256"
        }
      ],
      "name": "newWallet",
      "outputs": [],
      "stateMutability": "nonpayable",
      "type": "function"
    },
    {
      "inputs": [],
      "name": "symbol",
      "outputs": [
        {
          "internalType": "string",
          "name": "",
          "type": "string"
        }
      ],
      "stateMutability": "view",
      "type": "function"
    },
    {
      "inputs": [],
      "name": "totalSupply",
      "outputs": [
        {
          "internalType": "uint256",
          "name": "",
          "type": "uint256"
        }
      ],
      "stateMutability": "view",
      "type": "function"
    },
    {
      "inputs": [
        {
          "internalType": "address",
          "name": "to",
          "type": "address"
        },
        {
          "internalType": "uint256",
          "name": "amount",
          "type": "uint256"
        }
      ],
      "name": "transfer",
      "outputs": [
        {
          "internalType": "bool",
          "name": "",
          "type": "bool"
        }
      ],
      "stateMutability": "nonpayable",
      "type": "function"
    },
    {
      "inputs": [
        {
          "internalType": "address",
          "name": "from",
          "type": "address"
        },
        {
          "internalType": "address",
          "name": "to",
          "type": "address"
        },
        {
          "internalType": "uint256",
          "name": "amount",
          "type": "uint256"
        }
      ],
      "name": "transferFrom",
      "outputs": [
        {
          "internalType": "bool",
          "name": "",
          "type": "bool"
        }
      ],
      "stateMutability": "nonpayable",
      "type": "function"
    },
    {
      "inputs": [
        {
          "internalType": "address",
          "name": "",
          "type": "address"
        }
      ],
      "name": "walletExists",
      "outputs": [
        {
          "internalType": "bool",
          "name": "",
          "type": "bool"
        }
      ],
      "stateMutability": "view",
      "type": "function"
    }
  ],
  "transactionHash": "0x0602e6f2cae27d776c2473e7a6ffa6334cd9d8b33c7d37074b98a072d066d71b",
  "args": [
    0
  ],
  "numDeployments": 1,
  "solcInputHash": "afdbf4e27abd787025725e883376aa8d",
  "bytecode": "0x60a06040523480156200001157600080fd5b5060405162002889380380620028898339818101604052810190620000379190620003fc565b6040518060400160405280600981526020017f536c696e67436f696e00000000000000000000000000000000000000000000008152506040518060400160405280600381526020017f534c4700000000000000000000000000000000000000000000000000000000008152508160039080519060200190620000bb92919062000335565b508060049080519060200190620000d492919062000335565b5050503373ffffffffffffffffffffffffffffffffffffffff1660808173ffffffffffffffffffffffffffffffffffffffff1660601b815250506200014a3362000123620001a960201b60201c565b600a62000131919062000568565b836200013e9190620006a5565b620001b260201b60201c565b6001600560003373ffffffffffffffffffffffffffffffffffffffff1673ffffffffffffffffffffffffffffffffffffffff16815260200190815260200160002060006101000a81548160ff0219169083151502179055505062000801565b60006012905090565b600073ffffffffffffffffffffffffffffffffffffffff168273ffffffffffffffffffffffffffffffffffffffff16141562000225576040517f08c379a00000000000000000000000000000000000000000000000000000000081526004016200021c9062000460565b60405180910390fd5b62000239600083836200032b60201b60201c565b80600260008282546200024d9190620004b0565b92505081905550806000808473ffffffffffffffffffffffffffffffffffffffff1673ffffffffffffffffffffffffffffffffffffffff1681526020019081526020016000206000828254620002a49190620004b0565b925050819055508173ffffffffffffffffffffffffffffffffffffffff16600073ffffffffffffffffffffffffffffffffffffffff167fddf252ad1be2c89b69c2b068fc378daa952ba7f163c4a11628f55a4df523b3ef836040516200030b919062000482565b60405180910390a362000327600083836200033060201b60201c565b5050565b505050565b505050565b82805462000343906200071d565b90600052602060002090601f016020900481019282620003675760008555620003b3565b82601f106200038257805160ff1916838001178555620003b3565b82800160010185558215620003b3579182015b82811115620003b257825182559160200191906001019062000395565b5b509050620003c29190620003c6565b5090565b5b80821115620003e1576000816000905550600101620003c7565b5090565b600081519050620003f681620007e7565b92915050565b6000602082840312156200040f57600080fd5b60006200041f84828501620003e5565b91505092915050565b600062000437601f836200049f565b91506200044482620007be565b602082019050919050565b6200045a8162000706565b82525050565b600060208201905081810360008301526200047b8162000428565b9050919050565b60006020820190506200049960008301846200044f565b92915050565b600082825260208201905092915050565b6000620004bd8262000706565b9150620004ca8362000706565b9250827fffffffffffffffffffffffffffffffffffffffffffffffffffffffffffffffff0382111562000502576200050162000753565b5b828201905092915050565b6000808291508390505b60018511156200055f5780860481111562000537576200053662000753565b5b6001851615620005475780820291505b80810290506200055785620007b1565b945062000517565b94509492505050565b6000620005758262000706565b9150620005828362000710565b9250620005b17fffffffffffffffffffffffffffffffffffffffffffffffffffffffffffffffff8484620005b9565b905092915050565b600082620005cb57600190506200069e565b81620005db57600090506200069e565b8160018114620005f45760028114620005ff5762000635565b60019150506200069e565b60ff84111562000614576200061362000753565b5b8360020a9150848211156200062e576200062d62000753565b5b506200069e565b5060208310610133831016604e8410600b84101617156200066f5782820a90508381111562000669576200066862000753565b5b6200069e565b6200067e84848460016200050d565b9250905081840481111562000698576200069762000753565b5b81810290505b9392505050565b6000620006b28262000706565b9150620006bf8362000706565b9250817fffffffffffffffffffffffffffffffffffffffffffffffffffffffffffffffff0483118215151615620006fb57620006fa62000753565b5b828202905092915050565b6000819050919050565b600060ff82169050919050565b600060028204905060018216806200073657607f821691505b602082108114156200074d576200074c62000782565b5b50919050565b7f4e487b7100000000000000000000000000000000000000000000000000000000600052601160045260246000fd5b7f4e487b7100000000000000000000000000000000000000000000000000000000600052602260045260246000fd5b60008160011c9050919050565b7f45524332303a206d696e7420746f20746865207a65726f206164647265737300600082015250565b620007f28162000706565b8114620007fe57600080fd5b50565b60805160601c61204d6200083c600039600081816104fa0152818161066401528181610818015281816108fc0152610a4e015261204d6000f3fe608060405234801561001057600080fd5b506004361061010b5760003560e01c806347055321116100a257806395d89b411161007157806395d89b41146102e0578063a457c2d7146102fe578063a9059cbb1461032e578063b35571fb1461035e578063dd62ed3e1461037a5761010b565b8063470553211461024657806370a08231146102625780637c2cb90814610292578063893d20e8146102c25761010b565b80632c03abe2116100de5780632c03abe2146101ac578063313ce567146101dc57806339509351146101fa57806340c10f191461022a5761010b565b806306fdde0314610110578063095ea7b31461012e57806318160ddd1461015e57806323b872dd1461017c575b600080fd5b6101186103aa565b604051610125919061186b565b60405180910390f35b61014860048036038101906101439190611594565b61043c565b6040516101559190611850565b60405180910390f35b61016661045f565b6040516101739190611a2d565b60405180910390f35b61019660048036038101906101919190611545565b610469565b6040516101a39190611850565b60405180910390f35b6101c660048036038101906101c191906114e0565b610498565b6040516101d39190611850565b60405180910390f35b6101e46104b8565b6040516101f19190611a48565b60405180910390f35b610214600480360381019061020f9190611594565b6104c1565b6040516102219190611850565b60405180910390f35b610244600480360381019061023f9190611594565b6104f8565b005b610260600480360381019061025b9190611594565b610662565b005b61027c600480360381019061027791906114e0565b6107cc565b6040516102899190611a2d565b60405180910390f35b6102ac60048036038101906102a791906114e0565b610814565b6040516102b99190611850565b60405180910390f35b6102ca6108f8565b6040516102d7919061180c565b60405180910390f35b6102e8610920565b6040516102f5919061186b565b60405180910390f35b61031860048036038101906103139190611594565b6109b2565b6040516103259190611850565b60405180910390f35b61034860048036038101906103439190611594565b610a29565b6040516103559190611850565b60405180910390f35b61037860048036038101906103739190611594565b610a4c565b005b610394600480360381019061038f9190611509565b610c0e565b6040516103a19190611a2d565b60405180910390f35b6060600380546103b990611b91565b80601f01602080910402602001604051908101604052809291908181526020018280546103e590611b91565b80156104325780601f1061040757610100808354040283529160200191610432565b820191906000526020600020905b81548152906001019060200180831161041557829003601f168201915b5050505050905090565b600080610447610c95565b9050610454818585610c9d565b600191505092915050565b6000600254905090565b600080610474610c95565b9050610481858285610e68565b61048c858585610ef4565b60019150509392505050565b60056020528060005260406000206000915054906101000a900460ff1681565b60006012905090565b6000806104cc610c95565b90506104ed8185856104de8589610c0e565b6104e89190611a7f565b610c9d565b600191505092915050565b7f000000000000000000000000000000000000000000000000000000000000000073ffffffffffffffffffffffffffffffffffffffff163373ffffffffffffffffffffffffffffffffffffffff1614610586576040517f08c379a000000000000000000000000000000000000000000000000000000000815260040161057d9061192d565b60405180910390fd5b8160011515600560008373ffffffffffffffffffffffffffffffffffffffff1673ffffffffffffffffffffffffffffffffffffffff16815260200190815260200160002060009054906101000a900460ff1615151461061a576040517f08c379a00000000000000000000000000000000000000000000000000000000081526004016106119061194d565b60405180910390fd5b6106248383611175565b7f99dbff6288c84ae02a8b4165303576ec29421d3a2e283c8e1782da6bcc08e3208383604051610655929190611827565b60405180910390a1505050565b7f000000000000000000000000000000000000000000000000000000000000000073ffffffffffffffffffffffffffffffffffffffff163373ffffffffffffffffffffffffffffffffffffffff16146106f0576040517f08c379a00000000000000000000000000000000000000000000000000000000081526004016106e79061192d565b60405180910390fd5b8160011515600560008373ffffffffffffffffffffffffffffffffffffffff1673ffffffffffffffffffffffffffffffffffffffff16815260200190815260200160002060009054906101000a900460ff16151514610784576040517f08c379a000000000000000000000000000000000000000000000000000000000815260040161077b9061194d565b60405180910390fd5b61078e83836112d5565b7f90661755d2353e7423b9bdb7828f782ab3f98690af4c792aecc173bd1eb5391c83836040516107bf929190611827565b60405180910390a1505050565b60008060008373ffffffffffffffffffffffffffffffffffffffff1673ffffffffffffffffffffffffffffffffffffffff168152602001908152602001600020549050919050565b60007f000000000000000000000000000000000000000000000000000000000000000073ffffffffffffffffffffffffffffffffffffffff163373ffffffffffffffffffffffffffffffffffffffff16146108a4576040517f08c379a000000000000000000000000000000000000000000000000000000000815260040161089b9061192d565b60405180910390fd5b600560008373ffffffffffffffffffffffffffffffffffffffff1673ffffffffffffffffffffffffffffffffffffffff16815260200190815260200160002060009054906101000a900460ff169050919050565b60007f0000000000000000000000000000000000000000000000000000000000000000905090565b60606004805461092f90611b91565b80601f016020809104026020016040519081016040528092919081815260200182805461095b90611b91565b80156109a85780601f1061097d576101008083540402835291602001916109a8565b820191906000526020600020905b81548152906001019060200180831161098b57829003601f168201915b5050505050905090565b6000806109bd610c95565b905060006109cb8286610c0e565b905083811015610a10576040517f08c379a0000000000000000000000000000000000000000000000000000000008152600401610a07906119ed565b60405180910390fd5b610a1d8286868403610c9d565b60019250505092915050565b600080610a34610c95565b9050610a41818585610ef4565b600191505092915050565b7f000000000000000000000000000000000000000000000000000000000000000073ffffffffffffffffffffffffffffffffffffffff163373ffffffffffffffffffffffffffffffffffffffff1614610ada576040517f08c379a0000000000000000000000000000000000000000000000000000000008152600401610ad19061192d565b60405180910390fd5b8160001515600560008373ffffffffffffffffffffffffffffffffffffffff1673ffffffffffffffffffffffffffffffffffffffff16815260200190815260200160002060009054906101000a900460ff16151514610b6e576040517f08c379a0000000000000000000000000000000000000000000000000000000008152600401610b65906119ad565b60405180910390fd5b610b788383611175565b6001600560008573ffffffffffffffffffffffffffffffffffffffff1673ffffffffffffffffffffffffffffffffffffffff16815260200190815260200160002060006101000a81548160ff0219169083151502179055507f7f7e4313ca9d535db2400fedb8e0485d204c394f010f9d534a84441e9f5394008383604051610c01929190611827565b60405180910390a1505050565b6000600160008473ffffffffffffffffffffffffffffffffffffffff1673ffffffffffffffffffffffffffffffffffffffff16815260200190815260200160002060008373ffffffffffffffffffffffffffffffffffffffff1673ffffffffffffffffffffffffffffffffffffffff16815260200190815260200160002054905092915050565b600033905090565b600073ffffffffffffffffffffffffffffffffffffffff168373ffffffffffffffffffffffffffffffffffffffff161415610d0d576040517f08c379a0000000000000000000000000000000000000000000000000000000008152600401610d04906119cd565b60405180910390fd5b600073ffffffffffffffffffffffffffffffffffffffff168273ffffffffffffffffffffffffffffffffffffffff161415610d7d576040517f08c379a0000000000000000000000000000000000000000000000000000000008152600401610d74906118cd565b60405180910390fd5b80600160008573ffffffffffffffffffffffffffffffffffffffff1673ffffffffffffffffffffffffffffffffffffffff16815260200190815260200160002060008473ffffffffffffffffffffffffffffffffffffffff1673ffffffffffffffffffffffffffffffffffffffff168152602001908152602001600020819055508173ffffffffffffffffffffffffffffffffffffffff168373ffffffffffffffffffffffffffffffffffffffff167f8c5be1e5ebec7d5bd14f71427d1e84f3dd0314c0f7b2291e5b200ac8c7c3b92583604051610e5b9190611a2d565b60405180910390a3505050565b6000610e748484610c0e565b90507fffffffffffffffffffffffffffffffffffffffffffffffffffffffffffffffff8114610eee5781811015610ee0576040517f08c379a0000000000000000000000000000000000000000000000000000000008152600401610ed7906118ed565b60405180910390fd5b610eed8484848403610c9d565b5b50505050565b600073ffffffffffffffffffffffffffffffffffffffff168373ffffffffffffffffffffffffffffffffffffffff161415610f64576040517f08c379a0000000000000000000000000000000000000000000000000000000008152600401610f5b9061198d565b60405180910390fd5b600073ffffffffffffffffffffffffffffffffffffffff168273ffffffffffffffffffffffffffffffffffffffff161415610fd4576040517f08c379a0000000000000000000000000000000000000000000000000000000008152600401610fcb9061188d565b60405180910390fd5b610fdf8383836114ac565b60008060008573ffffffffffffffffffffffffffffffffffffffff1673ffffffffffffffffffffffffffffffffffffffff16815260200190815260200160002054905081811015611065576040517f08c379a000000000000000000000000000000000000000000000000000000000815260040161105c9061190d565b60405180910390fd5b8181036000808673ffffffffffffffffffffffffffffffffffffffff1673ffffffffffffffffffffffffffffffffffffffff16815260200190815260200160002081905550816000808573ffffffffffffffffffffffffffffffffffffffff1673ffffffffffffffffffffffffffffffffffffffff16815260200190815260200160002060008282546110f89190611a7f565b925050819055508273ffffffffffffffffffffffffffffffffffffffff168473ffffffffffffffffffffffffffffffffffffffff167fddf252ad1be2c89b69c2b068fc378daa952ba7f163c4a11628f55a4df523b3ef8460405161115c9190611a2d565b60405180910390a361116f8484846114b1565b50505050565b600073ffffffffffffffffffffffffffffffffffffffff168273ffffffffffffffffffffffffffffffffffffffff1614156111e5576040517f08c379a00000000000000000000000000000000000000000000000000000000081526004016111dc90611a0d565b60405180910390fd5b6111f1600083836114ac565b80600260008282546112039190611a7f565b92505081905550806000808473ffffffffffffffffffffffffffffffffffffffff1673ffffffffffffffffffffffffffffffffffffffff16815260200190815260200160002060008282546112589190611a7f565b925050819055508173ffffffffffffffffffffffffffffffffffffffff16600073ffffffffffffffffffffffffffffffffffffffff167fddf252ad1be2c89b69c2b068fc378daa952ba7f163c4a11628f55a4df523b3ef836040516112bd9190611a2d565b60405180910390a36112d1600083836114b1565b5050565b600073ffffffffffffffffffffffffffffffffffffffff168273ffffffffffffffffffffffffffffffffffffffff161415611345576040517f08c379a000000000000000000000000000000000000000000000000000000000815260040161133c9061196d565b60405180910390fd5b611351826000836114ac565b60008060008473ffffffffffffffffffffffffffffffffffffffff1673ffffffffffffffffffffffffffffffffffffffff168152602001908152602001600020549050818110156113d7576040517f08c379a00000000000000000000000000000000000000000000000000000000081526004016113ce906118ad565b60405180910390fd5b8181036000808573ffffffffffffffffffffffffffffffffffffffff1673ffffffffffffffffffffffffffffffffffffffff16815260200190815260200160002081905550816002600082825461142e9190611ad5565b92505081905550600073ffffffffffffffffffffffffffffffffffffffff168373ffffffffffffffffffffffffffffffffffffffff167fddf252ad1be2c89b69c2b068fc378daa952ba7f163c4a11628f55a4df523b3ef846040516114939190611a2d565b60405180910390a36114a7836000846114b1565b505050565b505050565b505050565b6000813590506114c581611fe9565b92915050565b6000813590506114da81612000565b92915050565b6000602082840312156114f257600080fd5b6000611500848285016114b6565b91505092915050565b6000806040838503121561151c57600080fd5b600061152a858286016114b6565b925050602061153b858286016114b6565b9150509250929050565b60008060006060848603121561155a57600080fd5b6000611568868287016114b6565b9350506020611579868287016114b6565b925050604061158a868287016114cb565b9150509250925092565b600080604083850312156115a757600080fd5b60006115b5858286016114b6565b92505060206115c6858286016114cb565b9150509250929050565b6115d981611b09565b82525050565b6115e881611b1b565b82525050565b60006115f982611a63565b6116038185611a6e565b9350611613818560208601611b5e565b61161c81611c21565b840191505092915050565b6000611634602383611a6e565b915061163f82611c32565b604082019050919050565b6000611657602283611a6e565b915061166282611c81565b604082019050919050565b600061167a602283611a6e565b915061168582611cd0565b604082019050919050565b600061169d601d83611a6e565b91506116a882611d1f565b602082019050919050565b60006116c0602683611a6e565b91506116cb82611d48565b604082019050919050565b60006116e3603683611a6e565b91506116ee82611d97565b604082019050919050565b6000611706602583611a6e565b915061171182611de6565b604082019050919050565b6000611729602183611a6e565b915061173482611e35565b604082019050919050565b600061174c602583611a6e565b915061175782611e84565b604082019050919050565b600061176f602583611a6e565b915061177a82611ed3565b604082019050919050565b6000611792602483611a6e565b915061179d82611f22565b604082019050919050565b60006117b5602583611a6e565b91506117c082611f71565b604082019050919050565b60006117d8601f83611a6e565b91506117e382611fc0565b602082019050919050565b6117f781611b47565b82525050565b61180681611b51565b82525050565b600060208201905061182160008301846115d0565b92915050565b600060408201905061183c60008301856115d0565b61184960208301846117ee565b9392505050565b600060208201905061186560008301846115df565b92915050565b6000602082019050818103600083015261188581846115ee565b905092915050565b600060208201905081810360008301526118a681611627565b9050919050565b600060208201905081810360008301526118c68161164a565b9050919050565b600060208201905081810360008301526118e68161166d565b9050919050565b6000602082019050818103600083015261190681611690565b9050919050565b60006020820190508181036000830152611926816116b3565b9050919050565b60006020820190508181036000830152611946816116d6565b9050919050565b60006020820190508181036000830152611966816116f9565b9050919050565b600060208201905081810360008301526119868161171c565b9050919050565b600060208201905081810360008301526119a68161173f565b9050919050565b600060208201905081810360008301526119c681611762565b9050919050565b600060208201905081810360008301526119e681611785565b9050919050565b60006020820190508181036000830152611a06816117a8565b9050919050565b60006020820190508181036000830152611a26816117cb565b9050919050565b6000602082019050611a4260008301846117ee565b92915050565b6000602082019050611a5d60008301846117fd565b92915050565b600081519050919050565b600082825260208201905092915050565b6000611a8a82611b47565b9150611a9583611b47565b9250827fffffffffffffffffffffffffffffffffffffffffffffffffffffffffffffffff03821115611aca57611ac9611bc3565b5b828201905092915050565b6000611ae082611b47565b9150611aeb83611b47565b925082821015611afe57611afd611bc3565b5b828203905092915050565b6000611b1482611b27565b9050919050565b60008115159050919050565b600073ffffffffffffffffffffffffffffffffffffffff82169050919050565b6000819050919050565b600060ff82169050919050565b60005b83811015611b7c578082015181840152602081019050611b61565b83811115611b8b576000848401525b50505050565b60006002820490506001821680611ba957607f821691505b60208210811415611bbd57611bbc611bf2565b5b50919050565b7f4e487b7100000000000000000000000000000000000000000000000000000000600052601160045260246000fd5b7f4e487b7100000000000000000000000000000000000000000000000000000000600052602260045260246000fd5b6000601f19601f8301169050919050565b7f45524332303a207472616e7366657220746f20746865207a65726f206164647260008201527f6573730000000000000000000000000000000000000000000000000000000000602082015250565b7f45524332303a206275726e20616d6f756e7420657863656564732062616c616e60008201527f6365000000000000000000000000000000000000000000000000000000000000602082015250565b7f45524332303a20617070726f766520746f20746865207a65726f20616464726560008201527f7373000000000000000000000000000000000000000000000000000000000000602082015250565b7f45524332303a20696e73756666696369656e7420616c6c6f77616e6365000000600082015250565b7f45524332303a207472616e7366657220616d6f756e742065786365656473206260008201527f616c616e63650000000000000000000000000000000000000000000000000000602082015250565b7f536c696e67436f696e45524332303a20526571756573742063616e206f6e6c7960008201527f20626520706572666f726d6564206279204f776e657200000000000000000000602082015250565b7f536c696e67436f696e45524332303a2057616c6c657420646f6573206e6f742060008201527f6578697374000000000000000000000000000000000000000000000000000000602082015250565b7f45524332303a206275726e2066726f6d20746865207a65726f2061646472657360008201527f7300000000000000000000000000000000000000000000000000000000000000602082015250565b7f45524332303a207472616e736665722066726f6d20746865207a65726f20616460008201527f6472657373000000000000000000000000000000000000000000000000000000602082015250565b7f536c696e67436f696e45524332303a2057616c6c657420616c7265616479206560008201527f7869737473000000000000000000000000000000000000000000000000000000602082015250565b7f45524332303a20617070726f76652066726f6d20746865207a65726f2061646460008201527f7265737300000000000000000000000000000000000000000000000000000000602082015250565b7f45524332303a2064656372656173656420616c6c6f77616e63652062656c6f7760008201527f207a65726f000000000000000000000000000000000000000000000000000000602082015250565b7f45524332303a206d696e7420746f20746865207a65726f206164647265737300600082015250565b611ff281611b09565b8114611ffd57600080fd5b50565b61200981611b47565b811461201457600080fd5b5056fea264697066735822122072ea5d89fdcd45868d5ce73c150e7e99664223deb461c0466d48d2f6f70c1ab164736f6c63430008040033",
  "devdoc": {
    "kind": "dev",
    "methods": {
      "allowance(address,address)": {
        "details": "See {IERC20-allowance}."
      },
      "approve(address,uint256)": {
        "details": "See {IERC20-approve}. NOTE: If `amount` is the maximum `uint256`, the allowance is not updated on `transferFrom`. This is semantically equivalent to an infinite approval. Requirements: - `spender` cannot be the zero address."
      },
      "balanceOf(address)": {
        "details": "See {IERC20-balanceOf}."
      },
      "decimals()": {
        "details": "Returns the number of decimals used to get its user representation. For example, if `decimals` equals `2`, a balance of `505` tokens should be displayed to a user as `5.05` (`505 / 10 ** 2`). Tokens usually opt for a value of 18, imitating the relationship between Ether and Wei. This is the value {ERC20} uses, unless this function is overridden; NOTE: This information is only used for _display_ purposes: it in no way affects any of the arithmetic of the contract, including {IERC20-balanceOf} and {IERC20-transfer}."
      },
      "decreaseAllowance(address,uint256)": {
        "details": "Atomically decreases the allowance granted to `spender` by the caller. This is an alternative to {approve} that can be used as a mitigation for problems described in {IERC20-approve}. Emits an {Approval} event indicating the updated allowance. Requirements: - `spender` cannot be the zero address. - `spender` must have allowance for the caller of at least `subtractedValue`."
      },
      "increaseAllowance(address,uint256)": {
        "details": "Atomically increases the allowance granted to `spender` by the caller. This is an alternative to {approve} that can be used as a mitigation for problems described in {IERC20-approve}. Emits an {Approval} event indicating the updated allowance. Requirements: - `spender` cannot be the zero address."
      },
      "name()": {
        "details": "Returns the name of the token."
      },
      "symbol()": {
        "details": "Returns the symbol of the token, usually a shorter version of the name."
      },
      "totalSupply()": {
        "details": "See {IERC20-totalSupply}."
      },
      "transfer(address,uint256)": {
        "details": "See {IERC20-transfer}. Requirements: - `to` cannot be the zero address. - the caller must have a balance of at least `amount`."
      },
      "transferFrom(address,address,uint256)": {
        "details": "See {IERC20-transferFrom}. Emits an {Approval} event indicating the updated allowance. This is not required by the EIP. See the note at the beginning of {ERC20}. NOTE: Does not update the allowance if the current allowance is the maximum `uint256`. Requirements: - `from` and `to` cannot be the zero address. - `from` must have a balance of at least `amount`. - the caller must have allowance for ``from``'s tokens of at least `amount`."
      }
    },
    "version": 1
  },
  "userdoc": {
    "kind": "user",
    "methods": {},
    "version": 1
  },
  "storageLayout": {
    "storage": [
      {
        "astId": 15,
        "contract": "contracts/SlingCoinERC20.sol:SlingCoinERC20",
        "label": "_balances",
        "offset": 0,
        "slot": "0",
        "type": "t_mapping(t_address,t_uint256)"
      },
      {
        "astId": 21,
        "contract": "contracts/SlingCoinERC20.sol:SlingCoinERC20",
        "label": "_allowances",
        "offset": 0,
        "slot": "1",
        "type": "t_mapping(t_address,t_mapping(t_address,t_uint256))"
      },
      {
        "astId": 23,
        "contract": "contracts/SlingCoinERC20.sol:SlingCoinERC20",
        "label": "_totalSupply",
        "offset": 0,
        "slot": "2",
        "type": "t_uint256"
      },
      {
        "astId": 25,
        "contract": "contracts/SlingCoinERC20.sol:SlingCoinERC20",
        "label": "_name",
        "offset": 0,
        "slot": "3",
        "type": "t_string_storage"
      },
      {
        "astId": 27,
        "contract": "contracts/SlingCoinERC20.sol:SlingCoinERC20",
        "label": "_symbol",
        "offset": 0,
        "slot": "4",
        "type": "t_string_storage"
      },
      {
        "astId": 1037,
        "contract": "contracts/SlingCoinERC20.sol:SlingCoinERC20",
        "label": "walletExists",
        "offset": 0,
        "slot": "5",
        "type": "t_mapping(t_address,t_bool)"
      }
    ],
    "types": {
      "t_address": {
        "encoding": "inplace",
        "label": "address",
        "numberOfBytes": "20"
      },
      "t_bool": {
        "encoding": "inplace",
        "label": "bool",
        "numberOfBytes": "1"
      },
      "t_mapping(t_address,t_bool)": {
        "encoding": "mapping",
        "key": "t_address",
        "label": "mapping(address => bool)",
        "numberOfBytes": "32",
        "value": "t_bool"
      },
      "t_mapping(t_address,t_mapping(t_address,t_uint256))": {
        "encoding": "mapping",
        "key": "t_address",
        "label": "mapping(address => mapping(address => uint256))",
        "numberOfBytes": "32",
        "value": "t_mapping(t_address,t_uint256)"
      },
      "t_mapping(t_address,t_uint256)": {
        "encoding": "mapping",
        "key": "t_address",
        "label": "mapping(address => uint256)",
        "numberOfBytes": "32",
        "value": "t_uint256"
      },
      "t_string_storage": {
        "encoding": "bytes",
        "label": "string",
        "numberOfBytes": "32"
      },
      "t_uint256": {
        "encoding": "inplace",
        "label": "uint256",
        "numberOfBytes": "32"
      }
    }
  }
}